:020000040800F2
:1000000060070020CD0100080D0500086D04000800
:1000100009050008150300082F0A00080000000069
:100020000000000000000000000000008D06000835
:100030004D0300080000000095050008A107000816
:10004000E7010008E7010008E7010008E7010008F0
:10005000E7010008E7010008E7010008E7010008E0
:10006000E7010008E7010008E7010008E7010008D0
:10007000E7010008E7010008E7010008E7010008C0
:10008000E7010008E7010008E7010008E7010008B0
:10009000E7010008E7010008E7010008E7010008A0
:1000A000E7010008E7010008E7010008E701000890
:1000B000E7010008E7010008E7010008E701000880
:1000C000E7010008E7010008E7010008E701000870
:1000D000E701000805080008E7010008E70100083B
:1000E000E7010008E7010008E7010008E701000850
:1000F000E7010008E7010008E7010008E701000840
:10010000E7010008E7010008E7010008E70100082F
:10011000E7010008E7010008E7010008E70100081F
:10012000E7010008E7010008E7010008E70100080F
:1001300000F002F800F03AF80AA090E8000C8244BF
:100140008344AAF10107DA4501D100F02FF8AFF29C
:10015000090EBAE80F0013F0010F18BFFB1A43F0A5
:10016000010318475C0A00007C0A0000103A24BF13
:1001700078C878C1FAD8520724BF30C830C144BF0C
:1001800004680C607047000000230024002500264E
:10019000103A28BF78C1FBD8520728BF30C148BFEA
:1001A0000B6070471FB51FBD10B510BD00F06EF895
:1001B0001146FFF7F7FF00F06FFC00F0A0F803B462
:1001C000FFF7F2FF03BC00F034FC00000948804751
:1001D00009480047FEE7FEE7FEE7FEE7FEE7FEE729
:1001E000FEE7FEE7FEE7FEE704480549054A064B41
:1001F00070470000A50700083101000860010020D9
:1002000060070020600300206003002070470000AA
:100210000FB4044910B503AA029800F009F810BC05
:100220005DF814FB2C000020704770477047704742
:10023000074B70B50D467B4400F011F80446284684
:1002400000F020F810B14FF0FF3070BD204670BDB7
:100250004308000001694A1C02610878704700B534
:100260008FB0CDE901310021059105497944CDE9EF
:1002700003101146684600F02EF80FB000BD0000D4
:10028000E5FFFFFF007B00F080007047754600F03F
:100290003DF8AE4605006946534620F00700854606
:1002A00018B020B5FFF7A0FFBDE820404FF00006D2
:1002B0004FF000074FF000084FF0000B21F007014E
:1002C000AC46ACE8C009ACE8C009ACE8C009ACE891
:1002D000C0098D4670472DE9F04106460024D6E955
:1002E0000170F5688046304603E04146B847641C1B
:1002F0003046A8470028F8D12046BDE8F0810446E2
:10030000AFF300802046FFF75AFF00000048704717
:10031000FC00002000BFFEE708B50121082000F026
:100320003BF910208DF803000001ADF80000032018
:100330008DF802006946044800F009F84FF4807116
:10034000014800F08FF808BD000C014070472DE90E
:10035000F04102460025002600200023002400274B
:1003600091F803C00CF00F0591F803C00CF0100CCD
:10037000BCF1000F03D091F802C04CEA050591F8DA
:1003800000C0BCF1000F31D0146800202BE04FF00A
:10039000010C0CFA00F3B1F800C00CEA03069E420F
:1003A00020D183004FF00F0C0CFA03F7BC4305FA81
:1003B00003FC4CEA040491F803C0BCF1280F06D1F9
:1003C0004FF0010C0CFA00FCC2F814C00AE091F8DE
:1003D00003C0BCF1480F05D14FF0010C0CFA00FC32
:1003E000C2F810C0401C0828D1D31460B1F800C076
:1003F000BCF1FF0F34DD546800202EE000F1080C42
:100400004FF0010808FA0CF3B1F800C00CEA03063B
:100410009E4221D183004FF00F0C0CFA03F7BC432E
:1004200005FA03FC4CEA040491F803C0BCF1280F60
:1004300005D100F1080C08FA0CF8C2F8148091F804
:1004400003C0BCF1480F07D100F1080C4FF00108C0
:1004500008FA0CF8C2F81080401C0828CED354606B
:10046000BDE8F081416170470161704700BFFEE760
:1004700008B50121402000F08FF848208DF80300D6
:100480000820ADF8000069460A48FFF760FF102019
:10049000ADF8000069460748FFF759FF28208DF89E
:1004A00003000120ADF8000069460348FFF74FFF45
:1004B00008BD0000001801400008014008B50121F6
:1004C000482000F069F810208DF803002020ADF8D6
:1004D000000003208DF8020069460948FFF737FF46
:1004E00020210748FFF7C0FF2020ADF80000694633
:1004F0000448FFF72CFF20210248FFF7B5FF08BD95
:10050000000C01400018014000BFFEE770470000EA
:1005100070B5002100230F22C47804B3154C246861
:1005200004F4E064C4F5E064210AC1F10403CA40A4
:10053000447804FA03F184781440214309010E4CF5
:100540000678A155047804F01F050124AC40057815
:100550006D11AD0005F1E025C5F8004109E0047812
:1005600004F01F050124AC40044D0678761145F8CF
:10057000264070BD0CED00E000E400E080E100E00A
:1005800002490143024A1160704700000000FA0569
:100590000CED00E07047000029B1064A9269024361
:1005A000044B9A6104E0034A92698243014B9A61C9
:1005B000704700000010024030B5002100220024E6
:1005C00000232D4D6D6805F00C0121B1042905D0E3
:1005D000082923D105E0294D056022E0274D05605B
:1005E0001FE0254D6D6805F47012234D6D6805F40C
:1005F0008034022505EB92421CB9214D554305601C
:100600000BE01D4D6D6805F400351DB11C4D5543C3
:10061000056002E0194D5543056002E0174D056085
:1006200000BF00BF144D6D6805F0F0010909154DBC
:100630006B5C0568DD4045600F4D6D6805F4E06159
:10064000090A104D6B5C4568DD4085600A4D6D6898
:1006500005F46051C90A0B4D6B5C4568DD40C5600F
:10066000054D6D6805F44041890B074D6B5CC5680D
:10067000B5FBF3F5056130BD0010024000127A00B1
:1006800000093D001400002024000020704710B530
:1006900000F002F810BD00000CB5002001900090A1
:1006A0003348006840F480303149086000BF30486A
:1006B000006800F4003000900198401C0190009800
:1006C00018B90198B0F5A06FF1D12948006800F47D
:1006D000003010B10120009001E00020009000984F
:1006E000012843D12348006840F0100021490860E8
:1006F0000846006820F0030008600846006840F0E3
:10070000020008601A484068194948600846406875
:1007100048600846406840F4806048600846406889
:1007200020F47C1048600846406840F4E8104860B7
:100730000846006840F08070086000BF0C48006800
:1007400000F000700028F9D00948406820F003004C
:10075000074948600846406840F00200486000BF12
:100760000348406800F00C000828F9D10CBD0000D7
:100770000010024000200240042808D14FF0E02180
:10078000096941F004014FF0E022116107E04FF0E8
:10079000E021096921F004014FF0E0221161704766
:1007A0007047000010B51348006840F0010011497F
:1007B000086008464068104908400E4948600846ED
:1007C00000680E4908400B4908600846006820F49C
:1007D000802008600846406820F4FE0048604FF41E
:1007E0001F008860FFF753FF4FF000600449086066
:1007F00010BD0000001002400000FFF8FFFFF6FEF1
:1008000008ED00E010B540F225511D4800F04AF80F
:1008100010B31B4800F002F9C4B21A48008800F473
:100820000040C8B91748008800F4804060B10A2C25
:1008300003D000201349088020E01248008840F4CB
:1008400000401049088019E00D2C06D10D480088A1
:1008500040F480400B49088010E00A480088C0F34B
:100860000D0009490C5407480088401C05490880C0
:1008700008460088C72801DD0020088010BD000060
:1008800000380140300000203400002021B182896E
:1008900042F40052828104E082894DF6FF731A40CF
:1008A0008281704770B50246002400230025002095
:1008B00040F66A16B14200D100BFC1F3421501F003
:1008C0001F03012606FA03F3012D02D19689334056
:1008D00006E0022D02D1168A334001E0968A3340A9
:1008E0000C12012606FA04F41688344013B10CB138
:1008F000012000E0002070BDF0B503460024002672
:100900000025002040F66A17B94200D100BF184602
:10091000C1F3421401F01F06012707FA06F5012C66
:1009200001D10C3004E0022C01D1103000E0143071
:100930001AB107682F43076002E00768AF430760FA
:10094000F0BD00002DE9F04786B005460E460024B4
:10095000A24600BFA1460027B08900B100BF2F46C4
:100960002C8A4CF6FF700440F08804432C82AC893A
:100970004EF6F3100440B08831890843718908436A
:100980000443AC81AC8A4FF6FF400440B089044375
:10099000AC8201A8FFF710FE1F48874202D1DDF8A4
:1009A00010A001E0DDF80CA0A88900F4004040B1DF
:1009B0000AEBCA0000EB0A1031684900B0FBF1F8FD
:1009C00007E00AEBCA0000EB0A1031688900B0FBAF
:1009D000F1F86420B8FBF0F004012009642101FB68
:1009E0001089A88900F4004040B1322000EBC90012
:1009F000B0FBF1F000F00700044308E0322000EB08
:100A000009106421B0FBF1F000F00F0004432C81C9
:100A100006B0BDE8F0870000003801400146888834
:100A2000C0F308007047C1F308028280704700BF1E
:100A3000FEE7014600BF704710B56FF00400FFF7F6
:100A40009BFE0A4800680A49B0FBF1F009490870AA
:100A50000846007800EB4001C1EBC0104FF6FF7173
:100A600001EAC0000449088010BD00000000002019
:100A700000127A00280000202A00002000BF054A4A
:100A8000128802F04002002AF9D0C2B2014B1B1DAD
:100A90001A8070470038014001244FF4A060FFF72E
:100AA0006FFD4FF4E13000F03BF8FFF707FDFFF773
:100AB000C3FFFFF731FCFFF7DBFC01200C490860A6
:100AC00000200C49C1F8940111E00B48008800F4A3
:100AD000004060B109A0FFF79BFB21460D48FFF7DE
:100AE000A2FF0DA0FFF794FB002003490880ECE76C
:100AF0009481214200002342300000200D0AC4FAF4
:100B0000B7A2CBCDB5C4CFFBCFA2CEAA3A0D0A0D6A
:100B10000A000000003801400D0A0D0A0000000024
:100B200010B586B00446012144F20400FFF734FDFD
:100B30004FF40070ADF8140003208DF81600182053
:100B40008DF8170005A91C48FFF701FC4FF48060E1
:100B5000ADF8140004208DF8170005A91648FFF71A
:100B6000F6FB25208DF8000003208DF801008DF89C
:100B7000020001208DF803006846FFF7C9FC0194CC
:100B80000020ADF80800ADF80A00ADF80C00ADF893
:100B900010000C20ADF80E0001A90848FFF7D2FEA6
:100BA000012240F225510548FFF7A6FE0121034826
:100BB000FFF76CFE06B010BD000801400038014090
:100BC000E00B000800000020340000006C01000869
:100BD000140C0008340000202C07000088010008D5
:100BE00000A24A040000000000000000010203040B
:100BF00006070809000000000102030401020304C3
:100C000006070809020406080000000000000000B2
:040C100000000000E0
:04000005080001CD21
:00000001FF
